:4000000000100020110000006D0300006D03000008B500F09BFD00F0ABF90000F8B572B680220021D2004A4800F00FFF8023DA004848002100F009FF0023181C4649FF259C
:400040005C584700261CAE431031E2B2351CC919002A07D00E784F787619013A3770D2B20231F5E7E4B204330019102BE6D1C0233A4D3B4F9904802499263A483A4B29609C
:400080003E60E103394E046040251960C0273848384935607C03384B384E046031250A6002221A609927356035488021354D3C040B06354E046080272B6034483449354B56
:4000C0003460354DBC05046019602E78062732432A702A78314C3A432A7020688021CB0203432F4D2F4E236028782F4F31783A78172A05D92D4B7878B978033F9F42F6D161
:400100002B4D2C4E2C4F19222860316005203A6000F0DEFA29482A4B01780520196000F00BFB284E2568284A2E4028482660202710241460264D0760264E274F8021274CE4
:40014000274A28480B062B60336014600760F8BD00300F4000400F40680E0000040001401000014000000440080004400001044008010440080304400004044008040440BC
:4001800000500F4004500F4010500F4018500F40100001002001054000700F4000010B40CCF1FF0FCDF1FF0FC9F1FF0FBDF1FF0F1CFF0B4020FF0B402CFF0B40E5F1FF0FD0
:4001C00028FF0B40FFFFFBFF080202402002024008010B4004010B40AF04008010000080000002404000024010B5064C2378002B07D10548002802D0044800E000BF0121B1
:40020000217010BDF000002000000000640E000008B5084B002B03D00748084900E000BF07480168002903D0064A002A00D0904708BDC04600000000640E0000F40000206B
:40024000D00000200000000010B562B600F0E2FC00280ED16524012000F058FA00F0DAFC002806D1013CE4B2002CF4D1034B40221A6000F0C1FC00F03BFCFEE7C0000020A4
:4002800008B500F0CDF800F005F900F06DF908BD70B5054B0D1C161C0024C9B21C8000F057F93580201C70BD0C010020F0B50A275F4387B002900591161C00252A4CBD428A
:4002C00019DA00F0D5F880B220802388002B0CD00220278800F01AFA00F0CAF881B221802288BA42F4D8002706E00120013500F00DFAADB2E2E705270025358020880028A4
:400300002FD023883088019301994218059993B233808B4221D201982A1893B2049304998D4209D002994819039000F087F8039A01351070ADB2F2E772B62088019A831AF0
:4003400099B2218062B602984219013A1378172BD4D0052000F0DAF9D0E7308000F09AF80527381C07B0F0BD0C01002000B5FEE770B50F490F4A01394B1C14D0506895684C
:400380001468031C1E1AAE4202D040CC40C3F9E7D0681D1C5C1B844202D0002640C3F9E710320139E8E700F021FDFFF74DFFFEE701000000B80E000008B500239A00032B41
:4003C00002D80C48815800E00B490C4801338150302BF3D1FFF722FE09490A4B086800221A60002800D1086080230122D9050A6008BDC046000000006D03000000000020B7
:40040000C0000020C800002008B5044B8022196810060843186000F049F908BD0000064008B5054B1A78002A03D10120187000F0BDF8FFF7E9FF08BD10010020094B00B5E7
:400440001968094B1A6891420AD019684A1C4039481E8141484205490240885C1A6000E0002000BDAC0100202401002068010020064B074A1B68116800B58B4202D31268B1
:40048000981A02E010684133181A00BDAC010020240100200C4A0D4B002130B5106811601D68802464022C431C601D68084C2C401C60084B084C1D68084B25601970084D01
:4004C00008492960106030BDC80F064004030640FFFFFEFF24010020AC010020A9010020C00F0640ED0F0000124910B50A68531C3F3A541EA241544223400F4A1468A342F1
:40050000FBD00C681268944208D10C4C0F2224682240082A02D00A4A10600AE0094C02222260094CC0B2E0540B60084B19680A431A6010BD200100201C0100200802064093
:4005400040020640800F064028010020880F064038B5041C4518AC4204D02078FFF7C4FF0134F8E738BD00000B4A0023116810B513600A4B80201C684002204318601C682F
:40058000074820401860074B07481C68022399430460116010BDC046880F064004020640FFFFFEFF1C010020200100201B4A1C4B1C4810B51C4900241A60046001221B4BBF
:4005C0001B480A601B490360072008601A491B4804600A601A4A13601A4B1C6000F06EF8194800F049F8032000F04CF817481849184A194B04600C60146018491C60184A44
:40060000184B04200860146017481C601749184A184B04600C7014601C6010BD0B000002000006404000064048000640070000800003064004030640440006401003064053
:400640000002064004020640250C0000880E0640C80E0640480F0640080F0640C80F0640880F0640AC01002024010020A9010020200100201C010020014B98667047C04668
:400680000000002038B5041C00F02BF8054B06491D68A2052C1C0C4014431C6000F025F838BDC04608E400E0FFFF3FFF8022024BD00018607047C04600E100E08022024B14
:4006C000D00018607047C04680E100E0000000000230800804D0C0460138FDD1C046C0467047EFF3108072B6704780F31088704701BE7047034B04491A6890B208431860AB
:400700007047C0460CED00E00400FA0510B5041C8022074B1002844205D91868FFF7D8FF04496418F4E758686043FFF7D1FF10BDD40000200080FFFF08B5034B197A48430F
:40074000FFF7C6FF08BDC046D40000200047000038B5041C013806280BD800F03DFB2406260F11080400174820E0174B09E0174B07E00020FFF7BCFF002302E0144B00E0B5
:40078000144B5A78187800021043022C04D0032C07D0012C15D104E0040A0302234398B20FE000BA0DE00C4800E00C48C578817842780378180628430D0228431104084375
:4007C000E3E738BDD87F0000C57F0000D47F0000D27F0000D67F0000C17F0000C97F000038B50220FFF7B4FF051C0320FFF7B0FF6C1CE1010C180220FFF7AAFF0023421CAD
:40080000D201191CA24209D21078451EEDB2FD2D00D80121C318DBB20132F3E705485B420578DCB2AC4201D0062002E00029FBD0002038BDC07F0000F0B5A34CA544FFF757
:400840001FFD62B600250095002603AF962124A849003A1CFF23FFF729FD0028F5D139880423062967D924AA1478012C63D193236B4492221F786A4413783C021C4324AFF9
:400880003A19177953790197E71D9C4603238F4251D89179042317294DD1E3189BB2002B08D0BAAA8949D7187A181778013BC01980B2F3E762464042019F110282B239431D
:4008C0000823914237D168E0342900D09AE0012D00D0F6E0032C00D0F3E06FA80021802200F0B3FA80266FA9881935192639E21EFF39AEB200F0A0FA832E00D0DAE0BC7948
:400900007979009F26020E43002F0AD1391C802204A800F09AFAFF2004A900F0F3F901200090301C6FA900F0EDF90125002800D1C3E000260A2300216846913001270370A9
:400940006A4624AC6B4692330E32277000200F1D197058701180BBB25C4FBAACE418E4192778013BC0199BB280B2002BF4D14442A0B2BAAF564C7B181F19564C38701F19B2
:40098000554C000A38701B19172707311F7089B224A89623FFF77CFC57E724AF79783B79081C31380A2801D90523C4E700F00AFA0611FC8C2FFC32428C507800012D00D0D7
:4009C0007FE0002C7DD1FFF70BFF434243413B7163E0012D75D1012C73D1002B71D13F4A25A8146821889524CF0907703A0A97209627FF216C446F446844397022700370BC
:400A0000042199E7012D5CD1022C5AD96BE7012D57D119E7012D54D19620371943009F424DD86FAA901925A9221C00F005FABEB2002380E7002C44D104AB294A191CA0CA52
:400A4000A0C125AF21CB21C708210125231C73E7012D36D1032C34D196226A449521177869440C7838021A0220438718FF01002280210139CC5D1219D2B20029F9D1002BF5
:400A800008D1FF2806D1174B174918780C78171A3A1BD2B2504224AB1871002301214BE7FFF79EFE002802D1104880240460FFF721FE06E00125002601E0061CB8E7032322
:400AC00039E7042337E7C04614FDFFFFA7FDFFFFACFDFFFFADFDFFFFAEFDFFFFE40000208C0E0000D07F0000D17F0000C0000020144810B50368002219680B1C013BBF2B49
:400B000003D01C781219D2B2F8E740680478A21AD3B2A34201D1002902D10020FFF7E8FDFFF75EFE084C2168221C402901D0002803D000231360FFF77FFE80202060FFF7EC
:400B4000D9FD10BDE4000020C000002008B50B4B10201A680A49024000D10A600B68802B0BD1002201200A60FFF7F2FD002804D00120FFF7EDFDFFF7E9FD08BD00030B40E1
:400B8000C00000200D4B8422D004186019688022500208431860196809481960C3239A000260084B084A09480021196002600849084B09481C2219600260704700010540A9
:400BC00024010540380105401027000014010540881300000C0105402801054008B5FFF780FD044B01211A680A431A60FFF77DFD08BDC0460000054010B5054C2378002BDB
:400C000003D1FFF7BFFF01202070FFF7E7FF10BD18010020024B18680106C80F7047C04604000440264B10B51868002800D0804724490A6852071DD5234C23681A0716D049
:400C4000224B234A186811684B1C40394C1EA1414C42204923400C68A34203D11E4B20221A70E9E71D49C0B2C8541360E4E71C49042008601B4A1468A20720D51A4B0F21B2
:400C800018680140082917D0184A194B1468186884420CD01C68621C3F3C601E8441614214480A40845C14490C601A60E6E7134C022122688A432260114B0220186010BDE0
:400CC00014010020CC0F06400803064040030640AC01002024010020A901002068010020C00F06408C0F064008020640200100201C0100202801002040020640880F0640ED
:400D0000800F0640F0B50023A7B0071C0193FF2845D8994243D0244A244C04AE26607F25049206A88022756000F086F8204D214929602B68002BFCDB2068A0210290029A87
:400D40000B069A4201D1002004E00298020F0F2A02D10920019003E021680B0F0A2BFBD1019A002A1DD12660134E3F0437430497FFF7B7FC1149124A0B6803932A602F683D
:400D8000002FFCDB039DA0260D60FFF7AEFC2468310602940298884203D0029800E001200190019827B0F0BDB6D70000080000400400004004000080B6D8000008010B4062
:400DC0000500008002B4714649084900095649008E4402BC7047C04602B4714649084900095C49008E4402BC7047C04670B50E4B0E4D0024E81A85101E1CAC4204D0A1003F
:400E0000725890470134F8E700F044F80849094A0E1C541AA5100024AC4204D0A300F05880470134F8E770BDA00E0000A00E0000A00E0000A80E000010B50023934203D0B7
:400E4000CC5CC4540133F9E710BD00B58218031C934202D019700133FAE700BDE80E0000050000000000000001330F4003410F4004430F4002600F40E61062048E04D84083
:400E800018808C40C608E608020111019311C80411140101F8B5C046F8BC08BC9E46704711020000B9030000F8B5C046F8BC08BC9E467047E9010000C80E0000D00000205B
:400EC00020000000C0000000000000000000E02EC05D00001800000000366E015C0E0000600E00000000000000000000000000000000000000000000000000000000000052
:400F000000100020110F0000E5210000E521000080B500AF024B83F3088801F067F9C0460010002080B584B000AF021CFB1D1A70224A3B1C0B3312781A70214A3B1C0A33AB
:400F400012781A701F4B1B68013BFB601AE01E4B1868391C0B31FA68131C5B009B18C31801331B780B70184B1868391C0A31FA68131C5B009B18C31802331B780B70FB6816
:400F8000013BFB60FB68002B0ADB0F4B1968FA68131C5B009B185B5CFA1D12789A42D6D90A4B3A1C0B3212781A60094B3A1C0A3212781A60BD4604B080BDC046CCF1FF0F2F
:400FC000CDF1FF0F2C350000D80000201CFF0B4020FF0B4080B500AF254B254A12688021C9020A431A601820FFF79CFF214B19221A60052001F09CFB1F4B204A1278D2B213
:401000001A60052001F0C8FB194B194A11681C4A0A401A601B4B20221A601B4B11221A601A4B30221A601A4B30221A60194B30221A60194B30221A60184B10221A60184B8A
:4010400030221A60174B802212061A60164B802212061A60154B164A1A60164B164A1A60164B174A1A60174B174A1A60BD4680BD00010B402CFF0B4028FF0B40E5F1FF0F33
:40108000FFFFFBFF080202400C0202402002024024020240280202402C020240340202403C02024008010B4004010B40000002400B000080400002401000008080000240B7
:4010C0001700008004000240A001008080B586B000AF72B6744B01221A703B1C173300221A7026E03B1C17331A78131C5B009B185B006E4A9B183B613B691A78597809020D
:401100000A43997809040A43DB781B0613431A1C3B6919795B791B020B439BB2101C191C01F0F0F83B1C17333A1C1732127801321A703B1C17331B78012BD3D93B1C1733C7
:4011400000221A7038E03B1C17331A78131C9B009B185B00564A9B18FB60FB681A78597809020A43997809040A43DB781B061343BB60FB681A79597909020A439979090445
:401180000A43DB791B0613437B60BA1CFB68197A5B7A1B020B431380BB1C1B88B9687A68081C111C1A1C01F0BDF83B1C17333A1C1732127801321A703B1C17331B78002B0D
:4011C000C1D03C4A3C4B101C191C01F0BDF83B4BA02212011A803A4B01221A70394B3A4A1A603A4B3A4A1A603A4B802212051A60394B3A4A1A603A4B99221A60394B58222C
:401200001A60394B394A1A60394B0F221A60394B394A1A60394B40221A60394BC02252031A60384B384A1A60384B02221A60384B31221A60374B02221A60374B374A1A60E1
:40124000374B384A1A60384B8C2292051A60374B992212041A60364B9622D2031A60354B992212041A60344B992212041A60334B01221A60324B02221A60324B314A12780C
:40128000D2B202210A43D2B21A702E4B2D4A1278D2B206210A43D2B21A70FFF79BFE01F093F8BD4606B080BD1C700F403C32000048320000543200007832000000600F4009
:4012C00002600F4000000140000003030400014038330000080001400C00014009EE000010000140000004400800044089ED18000001044008010440B60D000000020440AF
:401300000802044008030440810D000000040440080404401804044000500F400400990004500F4000000A0808500F4010500F4018500F4020500F4030500F40200000409E
:4013400000800F4000700F4010B5064C2378002B07D10548002802D0044800E000BF0121217010BDF000002000000000A431000008B5084B002B03D00748084900E000BF46
:4013800007480168002903D0064A002A00D0904708BDC04600000000A4310000F4000020D00000200000000080B582B000AF78600A1CFB1C1A70FB1C1B780A2B02D10D2020
:4013C00001F032F8FB1C1B78181C01F02DF8BD4602B080BD80B582B000AF01F091F9031C7B607B68181C01F095F901F0F3F8034B01221A70BD4602B080BDC046D400002008
:4014000080B500AF034B01221A7001F095FDBD4680BDC0460C01002080B582B000AF3A4B0020191C01F06AF801F012F900F0E6FF01F0D4FD01F09CFC012001F03BFD01200D
:4014400001F090FD002001F035FD0A2001F080F9012001F02FFDFB1D00221A700EE001F04FFD031C002B03D1012001F071F900E0C046FB1DFA1D127801321A70FB1D1B7849
:40148000632BECD9214B032001211A1C00F0FCFA01F0CEFA01F0C6FB01F092F900F0D0FA1B4B181C01F054F91A4B181C01F038F8194B181C01F014FB164B181C01F030F893
:4014C00062B600E0C046154B1B78DBB2002B0AD0124B00221A70124A124B101C191C00F075F800F04BF901F019FD031C002BE9D10D4B00221A7000F0A1FB0A4B181C14215C
:4015000000F0D0FBDEE7C046A91300008769000088130000D513000001140000D4000020A8010020940100200C01002080B582B000AF78607B68074A9A807B68054ADA807A
:401540007B68044A1A807B68024A5A80BD4602B080BDC046DC05000080B582B000AF78607B680C4A9A807B680A4ADA807B680833181C0021502201F00CFE7B68054A1A8040
:401580007B68044A5A807A685C230021D154BD4602B080BDDC05000080B582B000AF3960BB1D011C19807B1D1A70BB1D181C012100F0A4FB3A687B1D1B78101C191C00F06C
:4015C0009DFB00F021FBBD4602B080BD80B582B000AF78603960634B1B78062B49D89A00614BD3181B689F467B68181CFFF79EFF7B680833181CFFF7AFFF5C4B00221A809F
:4016000037E07A6864230121D1547A683B68101C191C00F0CFFC2CE07B681B88181C01F027FA7B685B88181C01F01CFB7B689B88181C01F06BF97B68DB88181C01F076F9FF
:4016400017E000F061F9031C002B11D07B681033181C00F0DDF90BE07B681033E4225200101C191C5022FFF797FF02E0C04600E0C0463C4B1B78062B00D970E09A003C4BB3
:40168000D3181B689F46374B05221A7067E0354B02221A7063E0334B03221A705FE0314B04221A705BE0314B00221A802D4B05221A7054E001F032FC031C002B06D12B4BCE
:4016C00000221A80274B01221A7048E0274B1B889AB2284B9A4216D9244B00221A807B68254A1A807B68244A5A807B68224A9A807B68214ADA807A6864230221D154194BE0
:4017000006221A702BE0194B1B889BB201339AB2164B1A80134B05221A7020E001F0FEFB031C002B03D10F4B01221A7016E07B681B88181C01F09CF97B685B88181C01F0DE
:4017400091FA7B689B88181C01F0E0F87B68DB88181C01F0EBF8034B06221A70C046BD4602B080BD86020020A831000084020020C43100004FC30000DC05000080B500AFA2
:40178000594B1B78DBB2002B00D1A7E001F090FC031CDAB2554B1A70544B1B78002B00D19EE0524B1B78181C00F0FCF8031C002B00D193E04E4B1B78DBB2092B00D984E0E4
:4017C0009A004C4BD3181B689F4600F0B7F800F0A5F8494B00221A707FE0444B1B78242B00D075E0424B02221A7071E03F4B1B78472B03D13E4B03221A706EE000F08EF819
:401800006BE03A4B1B78502B03D1394B04221A7063E000F083F860E0344B1B78472B03D1334B05221A7058E000F078F855E02F4B1B78472B03D12E4B06221A704DE000F0E5
:401840006DF84AE0294B1B78412B03D1284B07221A7042E000F062F83FE0244B1B782C2B09D1234B08221A70234B00221A70234B00221A7031E000F051F82EE01E4B1B7804
:401880001A4A11781E4AD1541B4B1B780133DAB2194B1A70154B1B78242B1BD100F06AF8184B01221A70124B09221A7012E0134B1B78DBB2002B0FD0124B00221A7000F0F2
:4018C0002DF80E4B00221A7006E000F027F804E0C04602E0C04600E0C046C046C04600E0C046BD4680BDC046640100206601002010010020E031000067010020650100207D
:4019000014010020D500002080B500AF024B1B78DBB2181CBD4680BDD500002080B500AF044B01221A70044B00221A70C046BD4680BDC046100100206501002080B582B07E
:4019400000AFFB1D00221A7009E0FB1D1B78084A2421D154FB1DFA1D127801321A70FB1D1B784F2BF1D9C046BD4602B080BDC0461401002080B582B000AFFB1D00221A7032
:40198000FB1D00221A7004E0FB1DFA1D127801321A70FB1D1B784F2BF6D9C046BD4602B080BDC04680B582B000AF021CFB1D1A70164B1A68FB1D1B780133D3181B781A1CCB
:4019C000032313401AD1114B1A68FB1D1B780133D3181B781A1C042313400FD1FB1D1B782C2B0BD0FB1D1B78242B07D0FB1D1B782E2B03D0FB1D1B782A2B01D1012300E05D
:401A00000023181CBD4602B080BDC046EC00002080B582B000AF78607A68074B111C1A1C5023081C111C1A1C01F0AAFB034B01221A70BD4602B080BD14010020650100208E
:401A400080B500AF024B01221A70BD4680BDC0466401002080B582B000AF021CFB1D1A70FB1D1B78181C01F0BDF9C04601F09AF9031C1A1C01231340F8D001F0CDF9031C6D
:401A8000181CBD4602B080BD80B590B000AFFB1D1870BB1D19703B1D1A803A1C2832524B111C1A1C1323081C111C1A1C01F068FB3A1C14324D4B111C1A1C1223081C111C0B
:401AC0001A1C01F05DFB3B1C1433BA1D1278DA733B1D1B881B0A9BB2DAB23B1C14331A743B1D1B88DAB23B1C14335A743B1C0C33092000211A1C062300F016FA3B1C283312
:401B0000FA1D12789A743B1C28330A225A743B1D1B881B0A9BB2DAB23B1C14331A713B1D1B88DAB23B1C14335A713B1C2833002000211A1C132300F06DF93B1C14330020C5
:401B400001211A1C122300F065F93B1C0C33092000211A1C062300F05DF912200121642200F01EF9642000F0F3FD00F043F80020142100F077F8002001F0F4F90020FFF7CD
:401B800069FF0020FFF766FF1420FFF763FF3B1C3E3300221A8016E03B1C3E331B881B0A9BB2DBB2181CFFF755FF3B1C3E331B88DBB2181CFFF74EFF3B1C3E333A1C3E3257
:401BC000128801321A803B1C3E331A88084B9A42E2D9012001F0C6F93B1C0C335B79181CBD4610B080BDC046083200001C320000FF03000080B500AF01200121012200F0F1
:401C00009FF8BD4680BDC04680B500AF0A4B1B88242001211A1C00F0C3F801200121202200F08EF82420012100F03EF9031C1A1C014B1A80BD4680BD6801002080B500AF34
:401C400002200121FF2200F07BF817200021FF2200F076F815200021FF2200F071F8BD4680BDC04680B582B000AF0A1CFB1D011C1970BB1D1A70BB1D1B782C2001211A1C44
:401C800000F05EF818200021012200F059F8FB1D1B78162000211A1C00F052F8BD4602B080BDC04680B582B000AF78600A1CFB1C1A70114B19887A68FB1C1B78081C032131
:401CC00000F032F92A20012100F0EEF8031C1A1C094B1A80084B1B88282001211A1C00F05FF801200121402200F02AF8024B1B88181CBD4602B080BD6A01002080B582B0A8
:401D000000AF78600A1CFB1C1A700C4B19887A68FB1C1B78081C022100F07CF8FB1C1B789AB2064B1B88D3189AB2044B1A80034B1B88181CBD4602B080BDC0466801002076
:401D400080B582B000AFBB1D18807B1D19703B1D1A70002001F006F9BB1D1B881B0A9BB2DBB2181CFFF776FEBB1D1B88DBB2181CFFF770FE7B1D1B78DB00DBB20422134303
:401D8000DBB2DBB2181CFFF765FE3B1D1B78181CFFF760FE012001F0E5F8BD4602B080BD80B582B000AFBB1D18807B1D1970BB1C1A80002001F0D6F8BB1D1B881B0A9BB244
:401DC000DBB2181CFFF746FEBB1D1B88DBB2181CFFF740FE7B1D1B78DB00DBB204221343DBB2DBB2181CFFF735FEBB1C1B881B0A9BB2DBB2181CFFF72DFEBB1C1B88DBB21D
:401E0000181CFFF727FE012001F0ACF8BD4602B080BDC04680B584B000AF3A601A1CBB1D18807B1D19703B1D1A70002001F09AF8BB1D1B881B0A9BB2DBB2181CFFF70AFEFB
:401E4000BB1D1B88DBB2181CFFF704FE7B1D1B78DB00DBB204221343DBB2DBB2181CFFF7F9FD3B1C0F3300221A700FE03B1C0F331B783A68D3181B78181CFFF7EBFD3B1CFC
:401E80000F333A1C0F32127801321A703A1C0F323B1D12781B789A42E8D3012001F062F8BD4604B080BDC04680B584B000AF0A1CBB1D011C19807B1D1A70002001F052F8B0
:401EC000BB1D1B881B0A9BB2DBB2181CFFF7C2FDBB1D1B88DBB2181CFFF7BCFD7B1D1B78DB00DBB2181CFFF7B5FD0020FFF7B2FD031C1A1C3B1C0E3312021A800020FFF7AF
:401F0000A9FD031C191C3B1C0E333A1C0E3212880A431A80012001F025F83B1C0E331B88181CBD4604B080BD90B585B000AF3A601A1CBB1D18807B1D19703B1D1A700020DA
:401F400001F010F8BB1D1B881B0A9BB2DBB2181CFFF780FDBB1D1B88DBB2181CFFF77AFD7B1D1B78DB00DBB2181CFFF773FD3B1C0F3300221A7010E03B1C0F331B783A686E
:401F8000D4180020FFF766FD031C23703B1C0F333A1C0F32127801321A703A1C0F323B1D12781B789A42E7D3012000F0DBFFBD4605B090BD80B586B000AF786039603B68D3
:401FC0000C331B781B029BB2FF22934399B23B680D331B781A1C3B1C12330A431A803B680E331B781B029BB2FF22934399B23B680F331B781A1C3B1C10330A431A803B1C8B
:40200000123300215B5E5B109BB29AB23B1C0E336E4952181A803B1C103300229B5E5B109BB29AB23B1C0C33684952181A803B1C0E331A88FA23DB009A4204D97B68FA223C
:40204000D2001A800FE03B1C0E331A88604B9A4204D87B68FA2292001A8004E07B683A1C0E3212881A803B1C0C331A88FA23DB009A4204D97B68FA22D2005A800FE03B1CD2
:402080000C331A88524B9A4204D87B68FA2292005A8004E07B683A1C0C3212885A803B6812331B781A023B1C0A331A803B6813331A783B1C08331A803A1C0A323B1C083320
:4020C00012881B8813439AB23B1C16331A803B6810331B781B029BB2FF22934399B23B6811331B781A1C3B1C14330A431A803B1C143300215A5E374B9A4203DD3B1C14331A
:4021000000221A803B1C143300215A5E324B9A4203DA3B1C143300221A803B1C163300215A5E2C4B9A4203DD3B1C163300221A803B1C163300215A5E274B9A4203DA3B1CD9
:40214000163300221A803B1C143300215A5E234B9A4206DD7B689B8805339AB27B689A8011E03B1C143300215A5E1D4B9A4206DA7B689B88053B9AB27B689A8003E07B684E
:402180009A887B689A803B1C163300215A5E134B9A4206DD7B68DB8805339AB27B68DA8011E03B1C163300229B5E191C0A3106DA7B68DB88053B9AB27B68DA8003E07B6892
:4021C000DA887B68DA80BD4606B080BDDC050000E7030000F20300000EFCFFFFB60300004AFCFFFF80B500AFFEE7C04680B586B000AF254B7B61254B3B61234B7B61234B8C
:402200003B6132E03B691B68FB603B695B68BB603B699B683B6000237B600CE0FB681A68BB681A60BB680433BB60FB680433FB607B6804337B607A683B689A42EED13B691B
:40224000DB683B6000237B6008E0BB6800221A60BB680433BB607B6804337B607A683B689A42F2D13B6910333B617B695A1E9341DBB27A69013A7A61002BC3D100F05AFF0C
:40228000FFF7CAF8FEE7C046010000005836000080B582B000AF00237B600FE07B68032B04D8134B7A689200D35800E0114B124A796889008B507B6801337B607B682F2BF3
:4022C000ECD9FEF703FF0D4B00221A600C4B1B68002B02D10A4B00221A608023DB058022D205126801210A431A60BD4602B080BD000F0000E521000000000020C8000020F7
:40230000C000002080B582B000AF786039607A683B68101C00211A1C00F03BFFBD4602B080BDC04680B584B000AFF860B9607A60F968BA687B68081C111C1A1C00F020FFAD
:40234000BD4604B080BDC04680B586B000AF7860396000233B6100237B612EE07B699B007A68D3181B68BB603B1C0F33BA681A70BB68FF229343BB6017E03B695B003A6810
:40238000D3181B781A1CBB68D3183A69520039688A1852781A703B6901333B613B1C0F333A1C0F321278013A1A703B1C0F331B78002BE2D17B6901337B617B69082BCDD921
:4023C000BD4606B080BDC04680B500AFBD4680BD80B500AF00F03EF8BD4680BD80B500AF054B054A1268802109060A431A6000F017F8BD4680BDC0460000064080B500AF90
:40240000064B1B78002B04D1FFF7E2FF034B01221A70FFF7E3FFBD4680BDC0466C01002080B500AFBD4680BD80B582B000AF7860C046064B1A680F231340082BF9D0044B80
:402440007A681A60BD4602B080BDC046080206404002064080B500AF174B184A1A60184B00221A60174B01221A60174B174A1A60174B07221A60174B00221A60164B01224C
:402480001A60164B114A1A60154B00221A60154B00221A60144B00221A60144B00221A60134B00221A60134B04221A60124B00221A60BD4680BDC046000006400B000002F4
:4024C000400006404800064000030640070000800403064010030640440006400002064004020640880E0640C80E0640480F0640080F0640C80F0640880F064080B582B0E1
:4025000000AF78603960044B3A681A60034B7A681A60BD4602B080BD740100207801002080B582B000AF786000F04AF87B68181C00F008F8032000F013F800F037F8BD46DF
:4025400002B080BD80B582B000AF7860034A8C237968D150BD4602B080BDC0460000002090B585B000AF021CFB1D1A701E23FB603C1C0B3400F0E5F8031C23700A4B0A4A24
:40258000126892009108FA1D1078FA68041C9440221C0A431A603B1C0B331B78181C00F0D4F8BD4605B090BD10E400E080B500AF024B802212031A60BD4680BD00E100E028
:4025C00080B500AF024B802212031A60BD4680BD80E100E080B500AF024B802212031A60BD4680BD80E200E080B500AF084B00221A60084B0C221A60012000F075F8142094
:4026000000F038F8052000F043F8BD4680BDC046C0010540E401054090B583B000AFFC1D00F08FF8031C2370084B084A126808210A431A60FB1D1B78181C00F086F80820C7
:40264000182100F033F8BD4603B090BD0000054080B500AF064B1B78002B04D1FFF7C4FF034B01221A70FFF7D7FFBD4680BDC0467C01002080B582B000AF7860034B7A6875
:402680001204120C1A60BD4602B080BDD401054080B582B000AF7860034B7A681204120C1A60BD4602B080BDCC01054090B585B000AF786039603C1C0F3400F042F8031C12
:4026C0002370084B3A687968081C9040021C1A603B1C0F331B78181C00F037F8BD4605B090BDC0460800054080B582B000AF7860024B7A681A60BD4602B080BDF801054047
:4027000080B500AF024B1B68181CBD4680BDC046FC01054080B582B000AF7860024B7A681A60BD4602B080BDF0010540000000000230800804D0C0460138FDD1C046C046C3
:402740007047EFF3108072B6704780F31088704780B582B000AF786008E00C4B1B68181CFFF7E6FF7B680A4A9B187B607A6880231B029A42F1D8074B1B687A685343181C43
:40278000FFF7D6FFBD4602B080BDC046E80000200080FFFFE000002080B582B000AF021CBB1D1A80BB1D1B88044A12785343181CFFF7BEFFBD4602B080BDC046E40000205E
:4027C00080B500AF064B1B78002B04D100F00AF8034B01221A7000F05BF8BD4680BDC0467D01002090B583B000AF244B1B78DAB2FB1D3F218A431A70204BFA1D1278092143
:402800000A43D2B21A701E4B1D4A1278D2B201210A43D2B21A701B4B1A4A1278D2B201210A43D2B21A70184B181C00F041F8164B181C00F05BF8154B181C00F067F8134BB4
:40284000181C00F073F8002000F080F8BC1DFFF778FF031C23700A4B094A1278D2B210210A43D2B21A70BB1D1B78181CFFF76DFF00F02EF8BD4603B090BDC04672000F4026
:4028800092000F4093000F40204E0000DC05000080B500AF054B054A1278D2B2802149420A43D2B21A70BD4680BDC04672000F4080B582B000AF021CBB1D1A80034BBA1D1C
:4028C00012881A80BD4602B080BDC04604100F4080B500AF01E000F059F800F047F8031C1A1C10231340F6D1BD4680BD80B582B000AF021CBB1D1A80034BBA1D12881A8033
:40290000BD4602B080BDC04684100F4080B582B000AF021CBB1D1A80034BBA1D12881A80BD4602B080BDC04644100F4080B582B000AF021CBB1D1A80034BBA1D12881A8023
:40294000BD4602B080BDC04664100F4080B582B000AF021CFB1D1A70034BFA1D12781A70BD4602B080BDC04682000F4080B582B000AF054AFB1D12781A70FB1D1B78181C14
:40298000BD4602B080BDC04662000F4080B500AF024B1B889BB2181CBD4680BDA4100F4080B500AF0F4B8022D2041A600D4B0D4A12681A600B4B0B4A12681A600A4B0C22E1
:4029C0001A60012000F080F8084B181C00F042F8074B181C00F04CF8064B31221A60BD4680BDC04680010540A4010540204E0000DC050000A801054090B583B000AFFC1DD8
:402A0000FFF79FFE031C2370084B084A126804210A431A60FB1D1B78181CFFF796FE0420182100F033F8BD4603B090BD0000054080B500AF064B1B78002B04D1FFF7B0FFB0
:402A4000034B01221A70FFF7D7FFBD4680BDC0467E01002080B582B000AF7860034B7A681204120C1A60BD4602B080BD9401054080B582B000AF7860034B7A681204120CC0
:402A80001A60BD4602B080BD8C01054090B585B000AF786039603C1C0F34FFF752FE031C2370084B3A687968081C9040021C1A603B1C0F331B78181CFFF747FEBD4605B0F6
:402AC00090BDC0460800054080B582B000AF7860024B7A681A60BD4602B080BDB801054080B582B000AF786000F04AF87B68181C00F008F8032000F011F800F037F8BD464A
:402B000002B080BD80B582B000AF7860024B7A681A64BD4602B080BD0000002090B585B000AF021CFB1D1A700623FB603C1C0B34FFF707FE031C23700B4B0B4A1268C02142
:402B4000101C8843011CFA1D1078FA68041C9440221C0A431A603B1C0B331B78181CFFF7F4FDBD4605B090BD00E400E080B500AF024B01221A60BD4680BDC04600E100E066
:402B800080B500AF024B01221A60BD4680BDC04680E100E080B500AF0F4B8022D2041A600D4B0D4A12681A600B4B0B4A12681A600A4B0C221A60012000F080F8084B181C41
:402BC00000F042F8074B181C00F04CF8064B31221A60BD4680BDC0460001054024010540204E0000DC0500002801054090B583B000AFFC1DFFF7A5FD031C2370084B084AF1
:402C0000126801210A431A60FB1D1B78181CFFF79CFD0120182100F033F8BD4603B090BD0000054080B500AF064B1B78002B04D1FFF7B0FF034B01221A70FFF7D7FFBD46CF
:402C400080BDC0467F01002080B582B000AF7860034B7A681204120C1A60BD4602B080BD1401054080B582B000AF7860034B7A681204120C1A60BD4602B080BD0C01054049
:402C800090B585B000AF786039603C1C0F34FFF758FD031C2370084B3A687968081C9040021C1A603B1C0F331B78181CFFF74DFDBD4605B090BDC0460800054080B582B021
:402CC00000AF7860024B7A681A60BD4602B080BD3801054080B500AF084B0F221A7000F0ABF800F05FF800F06DF8054B00221A70044B00221A70BD4680BDC04680000F4007
:402D000081000F4083000F4090B583B000AFFC1DFFF717FD031C2370124B124A1278D2B220210A43D2B21A700F4B0F4A1278D2B210210A43D2B21A700C4B0C4A1278D2B28A
:402D400010210A43D2B21A70FB1D1B78181CFFF7FCFC00F0A1F800F01DF800F01FF8BD4603B090BD90000F4091000F4093000F4080B500AF064B1B78002B04D1FFF7AAFF5A
:402D8000034B01221A70FFF7BFFFBD4680BDC0468001002080B500AFBD4680BD80B500AFBD4680BD80B582B000AF054AFB1D12781A70FB1D1B78181CBD4602B080BDC046CD
:402DC00061000F4080B582B000AF054AFB1D12781A70FB1D1B78181CBD4602B080BDC04663000F4080B582B000AF021CFB1D1A70C046074B1B78DBB21A1C04231340F8D043
:402E0000044BFA1D12781A70BD4602B080BDC04661000F4040000F4080B582B000AF054AFB1D12781A70FB1D1B78181CBD4602B080BDC04650000F4090B583B000AF01E0D2
:402E4000124B1B78124B1B78DBB21A1C20231340F6D1FC1DFFF775FC031C23700D4B0D4A1278D2B201210A43D2B21A70094B094A1278D2B201218A43D2B21A70FB1D1B7889
:402E8000181CFFF762FCBD4603B090BD50000F4063000F4090000F4080B500AF044B044A1268802109060A431A60BD4680BDC0460000024080B584B000AF021CFB1D1A7085
:402EC0000E4B1B68DAB23B1C0F3304218A431A70FB1D1B789B00DAB204231340D9B23B1C0F333A1C0F3212780A431A70034B3A1C0F3212781A60BD4604B080BD00000440CC
:402F000080B500AF044B1A68022313405B08DBB2181CBD4680BDC0460400044080B500AF044B1B68DAB201231340DBB2181CBD4680BDC0460400044080B582B000AF084B41
:402F40001B68D9B2FB1D01220A401A70044BFA1D12781A60FB1D1B78181CBD4602B080BD1000044080B584B000AF021CFB1D1A700E4B1B68DAB23B1C0F3308218A431A704C
:402F8000FB1D1B78DB00DAB208231340D9B23B1C0F333A1C0F3212780A431A70034B3A1C0F3212781A60BD4604B080BD0000044080B500AF00F028F8BD4680BD80B500AF2C
:402FC000054B054A1268802109060A431A6000F017F8BD4680BDC0460000074080B500AF064B1B78002B04D1FFF7E2FF034B01221A70FFF7E3FFBD4680BDC0468401002058
:4030000080B500AFBD4680BD80B500AF174B184A1A60184B00221A60174B01221A60174B174A1A60174B07221A60174B00221A60164B01221A60164B07221A60154B002288
:403040001A60154B00221A60144B00221A60144B00221A60134B00221A60134B04221A60124B00221A60BD4680BDC046000007400B000002400007404800074000030740F9
:40308000070000800403074010030740440007400002074004020740880E0740C80E0740480F0740080F0740C80F0740880F074080B582B000AF00237B6000F02BF8031C88
:4030C000002B03D000F016F8031C7B60084B1A68D8239B00134005D000237B60044BD82292001A607B68181CBD4602B080BDC046C00F074080B582B000AF00237B60044B6C
:403100001B687B607B68181CBD4602B080BDC0464003074080B582B000AF054B1A680F2313407B607B68181CBD4602B080BDC0460803074070B50E4B0E4D0024E81A85105B
:403140001E1CAC4204D0A100725890470134F8E700F070FA0849094A0E1C541AA5100024AC4204D0A300F05880470134F8E770BD40360000403600004036000048360000F9
:4031800010B50023934203D0CC5CC4540133F9E710BD00B58218031C934202D019700133FAE700BD00000000E8150000021600001816000042160000581600006C16000063
:4031C0006C160000861600008E160000961600009E160000A6160000B41600001C170000CA170000DA170000EC17000002180000181800002E180000441800005A180000C1
:403200007C180000AE18000000C0A80101FFFFFF000008DCFFFFFFC0A80AFE000200FF00FE01000000000000C0A80101698700000A090000255809000A00000080300F4080
:40324000800300400F40000400300F40AC3400008000000002000F4015300F4037310F4068320F4047330F400B400F400C410F4004430F4002600F40800F822F802982160D
:403280009402960DA423A61CA835AA0AB020B20FB610B920BA08BE41D409D804D904DB04DC31DD10DF01001801420503068009080A080BC10E1010281101120217281814BC
:4032C0001B101D041E101F412008211422162328270429012A44321633403954400441044281484449084A80510852605D085F5261046702682869556B40730180108F1289
:40330000C01FC227C46FCA0BCC0FCE0ED00FD204D6F0D81201040F01150818081B071E0E2E03300831023201330134043508360237043F104030410549FF4AFF4BFF4DA049
:403340004F04501852805427580459045A045B045C335D335F01604062C06440654066C068C06AC06CC06EC0808D846285148614872B888D890D8B108E8090429208941136
:403380009622970299389C029E0DA040A110A327A48DA88DAC0DAE80B070B303B480B53CB60FB920BA82BE10C030C105C5D5C601C720C827C9FFCAFFCBFFCDAFCE0FCF04E3
:4033C000D018D440D804D904DA04DB04DC11DD13DF01E040E2C0E440E540E6C0E8C0EAC0ECC0EEC00084010102040A410B200D400E04102811401240174019011A411B100E
:403400001C401D081E062214242225112901321436103704380439283B203D223EA04108450849024A124E02514052025C605D025F0462A0632066207680774080318A0626
:403440008B048E0191699A449B049D01A068A2A0AA04AB01AE01B240B310C00FC2CDC48FCA01CC66CE96D042D218D6F0D82EE290E61003200F10602066086F208208C010B6
:40348000C220D8C0DA80E680500454805B20808088208C048F209C20AF10D4E0E220E81018808C40C608E608100A110156000900079238040104009204928004003200C0FC
:4034C000602100D20A0710688496000084FA000584960000800004000404000000E07F1D800700000800000A000010003406200001DEFC0B1FFFFFFF2200F008040000000E
:403500000000022804040404111100010000C00040011011C001001140014001000000000000000000000000000000000400000000202020202020202020282828282820AC
:40354000202020202020202020202020202020202088101010101010101010101010101010040404040404040404041010101010101041414141414101010101010101018D
:40358000010101010101010101010101101010101010424242424242020202020202020202020202020202020202020210101010200000000000000000000000000000008B
:4035C00000000000000000000000000000000000000000000000000000000000000000000000000000000000000000000000000000000000000000000000000000000000CB
:4036000000000000000000000000000000000000000000000000000000000000000000000000000000000000000000000000000000000000F8B5C046F8BC08BC9E467047C4
:403640007113000091220000F8B5C046F8BC08BC9E4670474913000068360000D000002020000000980100000000000001010000C0F1FF0F00366E01C05D0000180000000F
:403680000000E02E30350000000000000000000000000000000000000000000000000000000000000000000000000000000000000000000000000000000000000000000097
:4036C00000000000000000000000000000000000000000000000000000000000000000000000000000000000000000000000000000000000000000000000000000000000CA
:403700000000000000000000000000000000000000000000000000000000000000000000000000000000000000000000000000000000000000000000000000000000000089
:403740000000000000000000000000000000000000000000000000000000000000000000000000000000000000000000000000000000000000000000000000000000000049
:403780000000000000000000000000000000000000000000000000000000000000000000000000000000000000000000000000000000000000000000000000000000000009
:407FC0004E110F00001D00000000280000000000000001000000000000000000000000000000000000000000000000000000000000000000000000000000000000000000CD
:0200000490303A
:02000000B158F5
:0200000490402A
:20000000FFFF010000000000000000000000000000000000000000000000000000000000E1
:0200000490501A
:0C000000000204C81193110004D9C2EBE7
:0200000490600A
:0100000001FE
:00000001FF